:030000000206E213
:0C06E200787FE4F6D8FD7581220207291C
:10035800756172743120696E6974206F6B210D0AA2
:1003680000475245454E5F4D4F44455F50555348F1
:100378003A4C552020202000475245454E5F4D4FAE
:1003880044455F505553483A4C44202020200047AC
:100398005245454E5F4D4F44455F505553483A4C82
:1003A800522020202000475245454E5F4D4F44457E
:1003B8005F505553483A4C4C202020200052454C61
:1003C800454153453A4C550D0A0052454C45415359
:1003D800453A4C440D0A0052454C454153453A4C68
:1003E8004C0D0A0052454C454153453A4C520D0AB2
:1003F80000475245454E5F4D4F44455F5055534861
:100408003A4C312020202000475245454E5F4D4F41
:1004180044455F505553483A4C322020202000472D
:100428005245454E5F4D4F44455F505553483A52EB
:10043800312020202000475245454E5F4D4F44450E
:100448005F505553483A52322020202000475245E9
:10045800454E5F4D4F44455F505553483A525520DD
:1004680020202000475245454E5F4D4F44455F5080
:100478005553483A52442020202000475245454EC3
:100488005F4D4F44455F505553483A524C20202009
:100498002000475245454E5F4D4F44455F505553E8
:1004A800483A5252202020200052454C454153459D
:1004B8003A4C310D0A0052454C454153453A4C32AD
:1004C8000D0A0052454C454153453A52310D0A0038
:1004D80052454C454153453A52320D0A0052454C5B
:1004E800454153453A52550D0A0052454C45415332
:1004F800453A52440D0A0052454C454153453A523B
:100508004C0D0A0052454C454153453A52520D0A8A
:0105180000E2
:100CED000210000002080000010E00010A00010FB1
:010CFD0000F6
:100C8500C295C290C296C2B4120C6D1200167F3284
:070C95007E00120C4F80F4F9
:100C6D00120CC61207EC120D1D120CDA7BFF7A0363
:080C7D007958120C9C020003DF
:07000300D2A2D2A1D2A32278
:10001600120772E51364416003020357E515248154
:10002600605324C0602D24E0606D24F0600302005C
:10003600BBE50AC394014003020120AF11AE1012C2
:10004600090D7BFF7A037969120C9C750F05050A69
:10005600020120E50AC394014003020120AF11AE5C
:10006600101209597BFF7A037980120C9C750F06D2
:10007600050A020120E50AC394014003020120AFEC
:1000860011AE101209A57BFF7A037997120C9C75A5
:100096000F08050A020120E50AC39401507CAF113E
:1000A600AE101209F17BFF7A0379AE120C9C750F24
:1000B60007050A8065E50F24FA601F146031146095
:1000C6004324037055C295C290C296C2B4E4F50AA1
:1000D600F50F7BFF7A0379C5803DC295C290C29623
:1000E600C2B4E4F50AF50F7BFF7A0379D28028C201
:1000F60095C290C296C2B4E4F50AF50F7BFF7A0367
:1001060079DF8013C295C290C296C2B4E4F50AF5AF
:100116000F7BFF7A0379EC120C9CE51624817003A1
:1001260002024324C0700302022324E07003020289
:100136006324F0700302020324F8606824FA700353
:100146000201CA14602724036003020283E50AC37E
:1001560094014003020357AF11AE10120A3D7BFF14
:100166007A0379F9120C9C750F01050A22E50AC378
:1001760094014003020357740A2511F511E4351062
:10018600F510D3E5119464E51094004005E4F510EC
:10019600F511120C057BFF7A047910120C9C750F71
:1001A60002050A22E50AC394014003020357AF1170
:1001B600AE10120A897BFF7A047927120C9C750F00
:1001C60003050A22E50AC39401400302035774F6A5
:1001D6002511F51174FF3510F510D3E5119464E57A
:1001E6001094004006751000751164120C057BFF13
:1001F6007A04793E120C9C750F04050A22E50AC39F
:1002060094014003020357AF11AE10120B217BFF7E
:100216007A047955120C9C750F09050A22E50AC362
:1002260094014003020357AF11AE10120B6D7BFF12
:100236007A04796C120C9C750F10050A22E50AC324
:1002460094014003020357AF11AE10120AD57BFF8B
:100256007A047983120C9C750F11050A22E50AC3EC
:1002660094014003020357AF11AE10120BB97BFF86
:100276007A04799A120C9C750F12050A22E50F244E
:10028600FE603A14604C14605E24FB606F24F970C3
:100296000302031714700302032C147003020341B4
:1002A60024116003020357C295C290C296C2B4E4F9
:1002B600F50AF50F7BFF7A0479B1020354C295C2A1
:1002C60090C296C2B4E4F50AF50F7BFF7A0479BEB4
:1002D600807CC295C290C296C2B4E4F50AF50F7B43
:1002E600FF7A0479CB8067C295C290C296C2B4E405
:1002F600F50AF50F7BFF7A0479D88052C295C29031
:10030600C296C2B4E4F50AF50F7BFF7A0479E5805C
:100316003DC295C290C296C2B4E4F50AF50F7BFFC2
:100326007A0479F28028C295C290C296C2B4E4F5E6
:100336000AF50F7BFF7A0479FF8013C295C290C23B
:1003460096C2B4E4F50AF50F7BFF7A05790C120C18
:020356009C22E7
:0A076E00FE120C4F7B007A00791296
:100778008B1D8A1E891FC2A27F01120874AB1DAA95
:100788001EA91FEF1206597F421208749000011229
:100798000866900002120866AB1DAA1EA91F9000E9
:1007A8000312086CAB1DAA1EA91F90000412086C46
:1007B800AB1DAA1EA91F90000512086CAB1DAA1E2E
:1007C800A91F90000612086CAB1DAA1EA91F900055
:1007D8000712086CAB1DAA1EA91F900008EF12068D
:0407E8006BD2A2220C
:0E086600AB1DAA1EA91FEF12066B120640FF63
:100874008F21E4F520F52274017E00A8220880056A
:10088400C333CE33CED8F9FFEF552124FF92A1D242
:10089400A3C2A37F037E00120D28D2A330A00FAF02
:1008A400227401A807088002C333D8FC4220052221
:0908B400E522C3940840C0AF2006
:0108BD002218
:100CDA0053877F759850759CB8438E04438E0143A1
:030CEA008E102247
:100C9C001206406010F5993099FDC299740129F93A
:060CAC00E43AFA80EB229D
:0B0D1D00E4F596F59575B2FFF5B122E4
:060C49008F807F057E0094
:100C4F00D3EF9400EE940040147D6E7C00ED1D7088
:0D0C5F00011CED4C70F7EF1F70E61E80E3E6
:010C6C002265
:0B0D2800EF1FAC0670011E4C70F6229D
:10090D008E1B8F1CC294D293C292D291C2B0D29739
:10091D00C2B2D2B1750E01E50E6030D295D290D231
:10092D0096D2B4AF1CAE1B120C4FC295C290C2969C
:10093D00C2B4C37464951CFFE4951B12076EE515D4
:0C094D00241160D38000E4F50E80CC2261
:100959008E1B8F1CD294C293D292C291D2B0C297ED
:10096900D2B2C2B1750E01E50E6030D295D290D2E5
:1009790096D2B4AF1CAE1B120C4FC295C290C29650
:10098900C2B4C37464951CFFE4951B12076EE51588
:0C099900244160D38000E4F50E80CC22E5
:1009A5008E1B8F1CD294C293C292D291D2B0C297A1
:1009B500C2B2D2B1750E01E50E6030D295D290D299
:1009C50096D2B4AF1CAE1B120C4FC295C290C29604
:1009D500C2B4C37464951CFFE4951B12076EE5153C
:0C09E500248160D38000E4F50E80CC2259
:1009F1008E1B8F1CC294D293D292C291C2B0D29755
:100A0100D2B2C2B1750E01E50E6030D295D290D24C
:100A110096D2B4AF1CAE1B120C4FC295C290C296B7
:100A2100C2B4C37464951CFFE4951B12076EE515EF
:0C0A3100242160D38000E4F50E80CC226C
:100A3D008E1B8F1CD294C293C292D291C2B0D29708
:100A4D00D2B2C2B1750E01E50E6030D295D290D200
:100A5D0096D2B4AF1CAE1B120C4FC295C290C2966B
:100A6D00C2B4C37464951CFFE4951B12076EE516A2
:0C0A7D00240560D38000E4F50E80CC223C
:100A89008E1B8F1CC294D293D292C291D2B0C297BC
:100A9900C2B2D2B1750E01E50E6030D295D290D2B4
:100AA90096D2B4AF1CAE1B120C4FC295C290C2961F
:100AB900C2B4C37464951CFFE4951B12076EE51656
:0C0AC900240960D38000E4F50E80CC22EC
:100AD5008E1B8F1CC294C293C292D291C2B0C29790
:100AE500C2B2D2B1750E01E50E6030D295D290D268
:100AF50096D2B4AF1CAE1B120C4FC295C290C296D3
:100B0500C2B4C37464951CFFE4951B12076EE51609
:0C0B1500248160D38000E4F50E80CC2227
:100B21008E1B8F1CC294D293C292C291C2B0D29733
:100B3100C2B2C2B1750E01E50E6030D295D290D22B
:100B410096D2B4AF1CAE1B120C4FC295C290C29686
:100B5100C2B4C37464951CFFE4951B12076EE516BD
:0C0B6100241160D38000E4F50E80CC224B
:100B6D008E1B8F1CD294C293C292C291D2B0C297E7
:100B7D00C2B2C2B1750E01E50E6030D295D290D2DF
:100B8D0096D2B4AF1CAE1B120C4FC295C290C2963A
:100B9D00C2B4C37464951CFFE4951B12076EE51671
:0C0BAD00244160D38000E4F50E80CC22CF
:100BB9008E1B8F1CC294C293D292C291C2B0C297AB
:100BC900D2B2C2B1750E01E50E6030D295D290D283
:100BD90096D2B4AF1CAE1B120C4FC295C290C296EE
:100BE900C2B4C37464951CFFE4951B12076EE51625
:0C0BF900242160D38000E4F50E80CC22A3
:100CFF00C2A4120C49D2A67F0A7E00120C4FC2A6C4
:010D0F0022C1
:070CB20012068DEF2430FF54
:0D0CB900D2A4120C49D2A6120C4BC2A622E6
:100CC600758901758CDCE4F58AD2AFD2A9D28CD2B3
:040CD600AAD28A22F2
:1007EC00C2A6C2A57F38120CFF7F01120CFF7F0C32
:1007FC00120CFF7F01120CFF7F80120CFF7F561230
:10080C000CB97F3A120CB97F87120CFF7F72120C55
:10081C00B97F70120CB97F6D120CB97FC0120CFF2E
:10082C007F7A120CB97F68120CB97F61120CB97FF8
:10083C006E120CB97F6B120CB97F6F120CB97F6EF4
:10084C00120CB97F67120CB97F62120CB97F691256
:0A085C000CB97F3A120CB9020C052A
:100519007F82120CFFE509AE087802CEC313CE1311
:10052900D8F9FBAA067C277D10FF12068DEF4E60D5
:1005390006EF2430FF80027F20120CB97C037DE88E
:10054900AF03AE0212068DEF4E70047F20801C7C33
:10055900277D10AF03AE0212068D7E037FE8CFCD53
:10056900CFCECCCE12068DEF2430FF120CB97C0011
:100579007D64AF03AE0212068DEF4E70047F2080BA
:10058900297C277D10AF03AE0212068D7E037FE81A
:10059900CFCDCFCECCCE12068D7E007F64CFCDCF0E
:1005A900CECCCE12068DEF2430FF120CB97C007D23
:1005B9000AAF03AE0212068DEF4E70047F2080361B
:1005C9007C277D10AF03AE0212068D7E037FE8CF34
:1005D900CDCFCECCCE12068D7E007F64CFCDCFCECF
:1005E900CCCE12068D7E007F0ACFCDCFCECCCE12D7
:1005F900068DEF2430FF120CB9AE02AF037C277DC4
:100609001012068D7E037FE8CFCDCFCECCCE120659
:100619008D7E007F64CFCDCFCECCCE12068D7E00ED
:100629007F0ACFCDCFCECCCE12068DED2430FF126E
:070639000CB97FD0020CFF99
:100C05007FCD120CFFAE10AF117C007D64120CB2CB
:100C15007FCE120CFFAE10AF117C007D6412068DE5
:100C25007E007F0ACFCDCFCECCCE120CB27FCF12B5
:100C35000CFFAE10AF117C007D0A12068DED24303D
:040C4500FF020CB9E5
:03001300020D10CB
:0D0D1000C0E00509E50970020508D0E032D9
:03000B000208BE2A
:1008BE00C0E0C0F0C0D075D000C000C002C003C000
:1008CE0004C005C006C007758CDC758A00050DE5F1
:1008DE000D7002050C64C8450C700F1205197508D1
:1008EE0000750900750C00750D00D007D006D005F7
:0F08FE00D004D003D002D000D0D0D0F0D0E03260
:1006EE00020C85E493A3F8E493A34003F68001F291
:1006FE0008DFF48029E493A3F85407240CC8C3330D
:10070E00C4540F4420C8834004F456800146F6DFDB
:10071E00E4800B0102040810204080900CEDE47E72
:10072E00019360BCA3FF543F30E509541FFEE493D0
:10073E00A360010ECF54C025E060A840B8E493A397
:10074E00FAE493A3F8E493A3C8C582C8CAC583CAC2
:10075E00F0A3C8C582C8CAC583CADFE9DEE780BE7A
:010CFE0000F5
:10064000BB010689828A83E0225002E722BBFE02B8
:09065000E32289828A83E49322EB
:10065900BB010689828A83F0225002F722BBFE0180
:02066900F3227A
:10066B00F8BB010DE58229F582E5833AF583E8F0C5
:10067B00225006E92582C8F622BBFE05E92582C871
:02068B00F22259
:10068D00BC000BBE0029EF8DF084FFADF022E4CC51
:10069D00F875F008EF2FFFEE33FEEC33FCEE9DEC1A
:1006AD00984005FCEE9DFE0FD5F0E9E4CEFD22ED60
:1006BD00F8F5F0EE8420D21CFEADF075F008EF2FAA
:1006CD00FFED33FD4007985006D5F0F222C398FD9B
:0506DD000FD5F0EA2238
:00000001FF
